:100000000C94AB000C94D3000C94D3000C948F028E
:100010000C94B3020C94D7020C94D3000C94D3002C
:100020000C94D3000C94D3000C94D3000C94D30004
:100030000C94D3000C94D3000C94D3000C94D300F4
:100040000C94DD040C94D3000C94D3000C94D300D6
:100050000C94D3000C94D3000C94D3000C94D300D4
:100060000C94D3000C94D30000C2010001001100D5
:1000700011000C0000E100000A002500250021000D
:10008000009600001900390039003600127A00008D
:100090001F004600460044008070000022004D0012
:1000A0004D004A00004B00003600750075007200DC
:1000B000403800004A009C009C0099008025000008
:1000C0007200EC00EC00E900C0120000E900DA0167
:1000D000DA01D70160090000D701B603B603B30304
:1000E000B0040000B3036E076E076B072C0100001D
:1000F000DC0EC11DC11DBE1D000000002400270034
:100100002A0000000000250028002B00000000004D
:100110002300260029000404040404040404020249
:100120000202020203030303030301020408102076
:100130004080010204081020010204081020000081
:100140000007000201000003040600000000000098
:1001500000001E01230111241FBECFEFD8E0DEBF37
:10016000CDBF11E0A0E0B1E0E8E6FCE002C0059000
:100170000D92A631B107D9F711E0A6E1B1E001C0B7
:100180001D92AF37B107E1F711E0C4E5D1E004C03B
:100190002297FE010E942306C235D107C9F70E94AB
:1001A000EB050C9427060C9400008130910541F476
:1001B00086E191E060E041E020E00E94490308957B
:1001C000009721F486E191E00E944C04089586E1B5
:1001D00091E040E855E260E070E00E94760368EE4E
:1001E00073E080E090E00E944B0508951F93CF9349
:1001F000DF9310E0C0E0D0E009C0C830D10571F055
:1002000086E191E00E942801219611E086E191E0CB
:100210000E944901009789F7112361F086E191E07E
:1002200060E071E00E94E80586E191E063E071E042
:100230000E94E805DF91CF911F91089581E090E041
:100240000E94D500089580E090E00E94D5000895B6
:10025000209132013091330128173907B1F4909180
:10026000750180917401981781F0E0917501F0E0BB
:10027000EC5CFE4F20818091750190E001968F73B8
:1002800090708093750130E002C02FEF3FEFC901FD
:10029000089520913201309133012817390779F4FC
:1002A000809174012091750190E0805C9F4F821BCA
:1002B000910960E470E00E94FA059C0102C020E010
:1002C00030E0C9010895209132013091330128179F
:1002D000390749F48FB7F894109274019091740122
:1002E000909375018FBF08952091320130913301B1
:1002F0002817390781F4909175018091740198173E
:1003000051F0E0917501F0E0EC5CFE4F2081332765
:1003100027FD309502C02FEF3FEFC901089520E07F
:1003200001972FEF8F3F9207D9F70895FC01809135
:100330003201909133018E179F0791F0838D8E7F4C
:10034000838F8FB7F89410927401909174019093F9
:100350007501F0933301E09332018FBF81E008957E
:1003600080E00895EF92FF920F931F93CF93DF9356
:10037000EC018B8DEE85FF859D8581FF04C080811A
:10038000892329F445C08081892309F041C08B89E4
:100390009C890E948F0108E010E0EE24E394FF2482
:1003A0008D899E890E948F01EE85FF8580819D85C4
:1003B000892311F0FE2803C08E2D8095F822EE0CC3
:1003C0000150104069F78F89988D0E948F018B8DA5
:1003D00081FDF094809174012091750190E0019667
:1003E0008F73907030E08217930779F0E091740179
:1003F000F0E0EC5CFE4FF0828091740190E0019699
:100400008F7390708093740103C08B8D81608B8F8C
:10041000DF91CF911F910F91FF90EF900895FC0114
:10042000A189B2899089662329F42C91892F80951E
:10043000822302C08C91892B8C930895DF92EF92D6
:10044000FF920F931F93CF93DF93EC01E62E898DDC
:100450009A8D009739F481E090E09B838A8320E0B5
:1004600030E04BC0DFB6F8948B8D61E081FF60E037
:10047000CE010E940F02898D9A8D05960E948F01F0
:100480008B8D81FF19C008E010E0FF24F3948F2DBD
:100490008E2119F0CE0160E002C0CE0161E00E9421
:1004A0000F02898D9A8D0E948F01FF0C0150104020
:1004B00071F7CE0160E018C008E010E0FF24F3946B
:1004C0008F2D8E2119F0CE0161E002C0CE0160E0D7
:1004D0000E940F02898D9A8D0E948F01FF0C01509E
:1004E000104071F7CE0161E00E940F02DFBE898DDE
:1004F0009A8D0E948F0121E030E0C901DF91CF91F8
:100500001F910F91FF90EF90DF900895809132013D
:1005100090913301009711F00E94B20108951F924B
:100520000F920FB60F9211242F933F934F935F9327
:100530006F937F938F939F93AF93BF93EF93FF93AB
:100540000E948602FF91EF91BF91AF919F918F9191
:100550007F916F915F914F913F912F910F900FBEBF
:100560000F901F9018951F920F920FB60F921124A3
:100570002F933F934F935F936F937F938F939F93AB
:10058000AF93BF93EF93FF930E948602FF91EF9189
:10059000BF91AF919F918F917F916F915F914F919B
:1005A0003F912F910F900FBE0F901F9018951F92A3
:1005B0000F920FB60F9211242F933F934F935F9397
:1005C0006F937F938F939F93AF93BF93EF93FF931B
:1005D0000E948602FF91EF91BF91AF919F918F9101
:1005E0007F916F915F914F913F912F910F900FBE2F
:1005F0000F901F9018951F93CF93DF93EC01162F48
:10060000862F61E00E948104812F61E00E94A50491
:10061000812F90E0FC01E65DFE4FE491E88BFC0148
:10062000EA5EFE4FE491F0E0EE0FFF1FEE5FFE4F3B
:1006300085919491898B9A8BDF91CF911F91089529
:100640001F93CF93DF93EC01162F862F60E00E945B
:1006500081048B8D81FD04C0812F61E00E94A5047F
:100660001C87812F90E0FC01E65DFE4FE491ED8751
:10067000FC01EA5EFE4FE491F0E0EE0FFF1FE45F45
:10068000FE4F859194918E879F87DF91CF911F9127
:1006900008951F93CF93DF93EC01162F1B821A82CC
:1006A00088EE93E0A0E0B0E08C839D83AE83BF83AF
:1006B00089E091E0998388831C8A1B8A1E8A1D8A9F
:1006C000188E1F8A1A8E198E8B8D2170220F8C7FA7
:1006D000822B8B8FCE01642F0E94FB02CE01612FF3
:1006E0000E942003DF91CF911F910895EF92FF9216
:1006F0000F931F93CF93DF93EC017A018B011A8E36
:10070000198E188E1F8A1E8A1D8A1C8A1B8A40E039
:1007100050E09A01220F331F240F351F220F331F81
:10072000220F331FF901E859FF4F85919591A5914B
:10073000B4918E159F05A007B107E9F4F901E459BA
:10074000FF4F859194918B8B9C8BF901E259FF4F60
:10075000859194918D8B9E8BF901E059FF4F859186
:1007600094918F8B988F2E583F4FF90185919491DA
:10077000898F9A8F06C04F5F5F4F4C30510509F04B
:10078000C8CF8F89988D009709F448C09C85963111
:1007900008F040C020916800983020F09E3020F092
:1007A00082E003C084E001C081E0822B8093680076
:1007B0004C85483048F04E3060F04631C8F1A0E03A
:1007C000B0E0E0E0F0E009C0ADE6B0E0EDE6F0E07A
:1007D00004C0ABE6B0E0EBE6F0E05081483040F416
:1007E00081E090E002C0880F991F4A95E2F710C09F
:1007F000242F30E04E3018F42850304002C02E50E4
:10080000304081E090E002C0880F991F2A95E2F7FE
:10081000852B8C93898D9A8D0E948F01CE010E9429
:100820009601DF91CF911F910F91FF90EF90089566
:10083000ACE6B0E0ECE6F0E0D0CFFC014485463118
:1008400050F5483028F04E3030F0ECE6F0E005C0CE
:10085000EDE6F0E002C0EBE6F0E05081483040F415
:1008600081E090E002C0880F991F4A95E2F710C01E
:10087000242F30E04E3018F42850304002C02E5063
:10088000304081E090E002C0880F991F2A95E2F77E
:10089000809585238083089529E031E0FC01318330
:1008A00020830E941D040895833071F0843028F461
:1008B0008130A1F0823021F514C08630B1F087304C
:1008C000D1F08430E9F404C0809180008F7703C0B8
:1008D000809180008F7D80938000089584B58F770C
:1008E00002C084B58F7D84BD08958091B0008F775C
:1008F0008093B00008958091B0008F7D8093B00008
:10090000089590E0FC01E65DFE4F2491FC01EA5E53
:10091000FE4FE491EE23C1F0F0E0EE0FFF1FE85030
:10092000FF4F85919491DC01662341F49FB7F894C1
:100930008C91209582238C939FBF08959FB7F89444
:100940008C91822B8C939FBF08950F931F93DF93FD
:10095000CF930F92CDB7DEB7282F30E0F901E25CDC
:10096000FE4F8491F901E65DFE4F14912A5E3E4FE1
:10097000F90104910023D9F0882321F069830E94B2
:1009800054046981E02FF0E0EE0FFF1FEE5FFE4F91
:1009900085919491DC019FB7F894662321F48C91A2
:1009A0001095812302C08C91812B8C939FBF0F9057
:1009B000CF91DF911F910F9108951F920F920FB663
:1009C0000F9211242F933F938F939F93AF93BF93D5
:1009D00080917A0190917B01A0917C01B0917D0181
:1009E00030917E010196A11DB11D232F2D5F2D3762
:1009F00020F02D570196A11DB11D20937E018093FB
:100A00007A0190937B01A0937C01B0937D0180914A
:100A1000760190917701A0917801B09179010196CA
:100A2000A11DB11D8093760190937701A093780169
:100A3000B0937901BF91AF919F918F913F912F9189
:100A40000F900FBE0F901F9018959FB7F8942091AC
:100A5000760130917701409178015091790186B506
:100A6000A89B06C08F3F21F02F5F3F4F4F4F5F4F36
:100A70009FBF542F432F322F2227280F311D411D96
:100A8000511D82E0220F331F441F551F8A95D1F755
:100A9000B901CA010895EF92FF920F931F93CF936C
:100AA000DF937B018C010E942505EB010FC00E94A2
:100AB00025056C1B7D0B83E0683E780738F00894B1
:100AC000E108F10801091109C851DC4FE114F104F2
:100AD0000105110561F7DF91CF911F910F91FF90F3
:100AE000EF900895789484B5826084BD84B5816068
:100AF00084BD85B5826085BD85B5816085BDEEE626
:100B0000F0E0808181608083E1E8F0E01082808104
:100B100082608083808181608083E0E8F0E0808172
:100B200081608083E1EBF0E0808184608083E0EB92
:100B3000F0E0808181608083EAE7F0E0808184607A
:100B400080838081826080838081816080838081D6
:100B5000806880831092C1000895CF92DF92EF9257
:100B6000FF920F931F93CF93DF936C017B018A0158
:100B7000C0E0D0E00FC0D7016D917D01D601ED91AD
:100B8000FC910190F081E02DC6010995C80FD91F95
:100B9000015010400115110571F7CE01DF91CF9181
:100BA0001F910F91FF90EF90DF90CF900895DB01A0
:100BB0000D900020E9F7AD0141505040461B570B06
:100BC000DC01ED91FC910280F381E02D09950895FF
:100BD0000E94D7050895CF93DF930E9472050E946B
:100BE000E700C0E0D0E00E94F6002097E1F30E9409
:100BF0000000F9CF97FB092E07260AD077FD04D015
:100C00000CD006D000201AF4709561957F4F08959E
:100C1000F6F7909581959F4F0895AA1BBB1B51E154
:100C200007C0AA1FBB1FA617B70710F0A61BB70B5C
:100C3000881F991F5A95A9F780959095BC01CD0101
:100C40000895EE0FFF1F0590F491E02D099411E037
:100C5000C4E5D1E004C0FE010E9423062296C635F9
:080C6000D107C9F7F894FFCF9A
:100C68006869000A00000000001E02AD054901285D
:060C78000174016301009C
:00000001FF
